:1000000000000320D90400002105000025050000A0
:100010001D0500001D0500001D050000000000007A
:1000200000000000000000000000000029050000A2
:100030001D050000000000002D0500003105000036
:10004000D53E00001D3F0000653F0000AD3F0000B1
:10005000F53F00003D40000085400000CD4000001D
:10006000154100005D410000A5410000ED41000088
:10007000354200007D420000C54200000D430000F3
:10008000750500001D0500001D0500001D05000090
:100090001D0500001D0500001D0500001D050000D8
:1000A000790500007D050000810500008505000040
:1000B000890500008D0500009105000095050000F0
:1000C000990500009D050000A10500001D05000028
:1000D0001D0500001D0500001D0500001D05000098
:1000E0001D0500001D0500001D0500001D05000088
:1000F0001D0500001D0500001D0500001D05000078
:100100001D0500001D0500001D0500001D05000067
:100110001D0500001D0500001D0500001D05000057
:100120001D0500001D0500001D0500000D34000028
:100130001D0500002D3400001D0500001D050000F8
:100140001D050000A50500001D0500001D0500009F
:100150001D0500001D050000A90500001D0500008B
:100160001D0500001D050000AD0500001D05000077
:100170001D0500001D0500001D0500001D050000F7
:100180001D050000B10500001D0500001D05000053
:100190001D0500001D0500001D0500001D050000D7
:1001A0001D0500001D0500001D050000B50500002F
:1001B0001D0500001D0500001D0500001D050000B7
:1001C0001D0500001D0500001D0500001D050000A7
:1001D000B90500001D0500001D0500001D050000FB
:1001E0001D0500001D0500001D0500001D05000087
:1001F0001D0500001D0500001D0500001D05000077
:100200001D0500001D0500001D0500001D05000066
:100210001D0500001D0500001D0500001D05000056
:100220001D0500001D0500001D0500001D05000046
:100230001D0500001D0500001D0500001D05000036
:100240001D0500001D0500001D0500001D05000026
:100250001D0500001D0500001D0500001D05000016
:100260001D0500001D0500001D0500001D05000006
:100270001D0500001D0500001D0500001D050000F6
:100280001D0500001D0500001D0500001D050000E6
:100290001D0500001D0500001D0500001D050000D6
:1002A0001D0500001D0500001D0500001D050000C6
:1002B0001D0500001D0500001D0500001D050000B6
:1002C0001D0500001D0500001D0500001D050000A6
:1002D0001D0500001D0500001D0500001D05000096
:1002E0001D0500001D0500001D0500001D05000086
:1002F0001D0500001D0500001D0500001D05000076
:100300001D0500001D0500001D0500001D05000065
:100310001D0500001D0500001D0500001D05000055
:100320001D0500001D0500001D0500001D05000045
:100330001D0500001D0500001D0500001D05000035
:100340001D0500001D0500001D0500001D05000025
:100350001D0500001D0500001D0500001D05000015
:100360001D0500001D0500001D0500001D05000005
:100370001D0500001D0500001D0500001D050000F5
:100380001D0500001D0500001D0500001D050000E5
:100390001D0500001D0500001D0500001D050000D5
:1003A0001D0500001D0500001D0500001D050000C5
:1003B0001D0500001D0500001D0500001D050000B5
:10040000FFFFFFFFFFFFFFFFFFFFFFFFFE3DFFFFBF
:1004100010B5054C237833B9044B13B10448AFF33E
:1004200000800123237010BD7800FF1F0000000032
:10043000387A000008B5064B1BB106480649AFF3F1
:1004400000800648036813B1054B03B1984708BD07
:1004500000000000387A00007C00FF1F7400FF1FBE
:1004600000000000154B002B08BF134B9D46A3F561
:10047000803A00218B460F461348144A121A06F0A0
:1004800066FD0F4B002B00D098470E4B002B00D081
:1004900098470020002104000D000D48002802D0DC
:1004A0000C48AFF3008006F023FD2000290002F085
:1004B000CDFF06F009FD00BF00000800000003208A
:1004C00000000000000000007800FF1F140AFF1F5A
:1004D000000000000000000072B6094809490160F0
:1004E0000948804709490A4A0A4B9A42BEBF51F857
:1004F000040B42F8040BF8E762B607488047000097
:1005000008ED00E000000000D1330000547B000043
:100510000000FF1F7800FF1F65040000FFF7FEBF0B
:1005200026480047264800472648004726480047F7
:1005300026480047264800472648004726480047E7
:1005400026480047264800472648004726480047D7
:1005500026480047264800472648004726480047C7
:1005600026480047264800472648004726480047B7
:1005700026480047264800472648004726480047A7
:100580002648004726480047264800472648004797
:100590002648004726480047264800472648004787
:1005A0002648004726480047264800472648004777
:1005B00026480047264800472648004721050000F6
:1005C00025050000290500002D050000310500006B
:1005D0001D0500001D0500001D0500001D05000093
:1005E0001D0500001D0500001D0500001D05000083
:1005F0001D0500001D0500001D0500001D05000073
:100600001D0500001D0500001D0500001D05000062
:100610001D0500003545000051450000493C000023
:10062000853C000095520000D1520000214B000093
:10063000414B0000614B0000814B0000A14B0000CA
:10064000C13C0000A94300006D450000C1580000F6
:10065000894500001D05000081F0004102E000BF57
:1006600083F0004330B54FEA41044FEA430594EA72
:10067000050F08BF90EA020F1FBF54EA000C55EAAD
:10068000020C7FEA645C7FEA655C00F0E2804FEA7E
:100690005454D4EB5555B8BF6D420CDD2C4480EA60
:1006A000020281EA030382EA000083EA010180EA90
:1006B000020281EA0303362D88BF30BD11F0004FDE
:1006C0004FEA01314FF4801C4CEA113102D0404214
:1006D00061EB410113F0004F4FEA03334CEA13334F
:1006E00002D0524263EB430394EA050F00F0A78067
:1006F000A4F10104D5F1200E0DDB02FA0EFC22FA62
:1007000005F2801841F1000103FA0EF2801843FA55
:1007100005F359410EE0A5F120050EF1200E012A46
:1007200003FA0EFC28BF4CF0020C43FA05F3C01884
:1007300051EBE37101F0004507D54FF0000EDCF1FD
:10074000000C7EEB00006EEB0101B1F5801F1BD3A6
:10075000B1F5001F0CD349085FEA30004FEA3C0CAA
:1007600004F101044FEA445212F5800F80F09A80A0
:10077000BCF1004F08BF5FEA500C50F1000041EBA4
:10078000045141EA050130BD5FEA4C0C404141EBA8
:10079000010111F4801FA4F10104E9D191F0000FCF
:1007A00004BF01460020B1FA81F308BF2033A3F152
:1007B0000B03B3F120020CDA0C3208DD02F1140C49
:1007C000C2F10C0201FA0CF021FA02F10CE002F184
:1007D0001402D8BFC2F1200C01FA02F120FA0CFC7D
:1007E000DCBF41EA0C019040E41AA2BF01EB0451C6
:1007F000294330BD6FEA04041F3C1CDA0C340EDCC4
:1008000004F11404C4F1200220FA04F001FA02F306
:1008100040EA030021FA04F345EA030130BDC4F1C4
:100820000C04C4F1200220FA02F001FA04F340EAB9
:100830000300294630BD21FA04F0294630BD94F06A
:10084000000F83F4801306BF81F480110134013D51
:100850004EE77FEA645C18BF7FEA655C29D094EAC2
:10086000050F08BF90EA020F05D054EA000C04BF40
:100870001946104630BD91EA030F1EBF002100202B
:1008800030BD5FEA545C05D14000494128BF41F0CA
:10089000004130BD14F580043CBF01F5801130BD2E
:1008A00001F0004545F0FE4141F470014FF00000B9
:1008B00030BD7FEA645C1ABF194610467FEA655C6A
:1008C0001CBF0B46024650EA013406BF52EA03350C
:1008D00091EA030F41F4002130BD00BF90F0000FFA
:1008E00004BF0021704730B54FF4806404F1320436
:1008F0004FF000054FF0000150E700BF90F0000FEF
:1009000004BF0021704730B54FF4806404F1320415
:1009100010F0004548BF40424FF000013EE700BFE5
:1009200042004FEAE2014FEA31014FEA02701FBF75
:1009300012F07F4393F07F4F81F06051704792F047
:10094000000F14BF93F07F4F704730B54FF46074C1
:1009500001F0004521F0004120E700BF50EA01020C
:1009600008BF704730B54FF000050AE050EA0102B9
:1009700008BF704730B511F0004502D5404261EB29
:1009800041014FF4806404F132045FEA915C3FF46A
:10099000DCAE4FF003025FEADC0C18BF03325FEA03
:1009A000DC0C18BF033202EBDC02C2F1200300FAB8
:1009B00003FC20FA02F001FA03FE40EA0E0021FADD
:1009C00002F11444C1E600BF70B54FF0FF0C4CF4C7
:1009D000E06C1CEA11541DBF1CEA135594EA0C0F7D
:1009E00095EA0C0F00F0DEF82C4481EA030621EAB8
:1009F0004C5123EA4C5350EA013518BF52EA0335F3
:100A000041F4801143F4801338D0A0FB02CE4FF0A4
:100A10000005E1FB02E506F00042E0FB03E54FF0D4
:100A20000006E1FB03569CF0000F18BF4EF0010ECC
:100A3000A4F1FF04B6F5007F64F5407404D25FEAC8
:100A40004E0E6D4146EB060642EAC62141EA55517B
:100A50004FEAC52040EA5E504FEACE2EB4F1FD0CBD
:100A600088BFBCF5E06F1ED8BEF1004F08BF5FEA3B
:100A7000500E50F1000041EB045170BD06F00046ED
:100A800046EA010140EA020081EA0301B4EB5C049A
:100A9000C2BFD4EB0C0541EA045170BD41F4801192
:100AA0004FF0000E013C00F3AB8014F1360FDEBFB7
:100AB000002001F0004170BDC4F10004203C35DA93
:100AC0000C341BDC04F11404C4F1200500FA05F316
:100AD00020FA04F001FA05F240EA020001F00042B7
:100AE00021F0004110EBD37021FA04F642EB06012D
:100AF0005EEA430E08BF20EAD37070BDC4F10C0457
:100B0000C4F1200500FA04F320FA05F001FA04F21A
:100B100040EA020001F0004110EBD37041F1000106
:100B20005EEA430E08BF20EAD37070BDC4F1200511
:100B300000FA05F24EEA020E20FA04F301FA05F279
:100B400043EA020321FA04F001F0004121FA04F221
:100B500020EA020000EBD3705EEA430E08BF20EAF1
:100B6000D37070BD94F0000F0FD101F0004640002B
:100B700041EB010111F4801F08BF013CF7D041EAAD
:100B8000060195F0000F18BF704703F000465200B1
:100B900043EB030313F4801F08BF013DF7D043EA82
:100BA0000603704794EA0C0F0CEA135518BF95EA38
:100BB0000C0F0CD050EA410618BF52EA4306D1D1BF
:100BC00081EA030101F000414FF0000070BD50EADE
:100BD000410606BF1046194652EA430619D094EA68
:100BE0000C0F02D150EA013613D195EA0C0F05D152
:100BF00052EA03361CBF104619460AD181EA0301A6
:100C000001F0004141F0FE4141F470014FF000005D
:100C100070BD41F0FE4141F4780170BD70B54FF0F8
:100C2000FF0C4CF4E06C1CEA11541DBF1CEA135578
:100C300094EA0C0F95EA0C0F00F0A7F8A4EB05045A
:100C400081EA030E52EA03354FEA013100F0888051
:100C50004FEA03334FF0805545EA131343EA12631A
:100C60004FEA022245EA111545EA10654FEA0026CF
:100C70000EF000419D4208BF964244F1FD0404F588
:100C8000407402D25B084FEA3202B61A65EB0305E4
:100C90005B084FEA32024FF480104FF4002CB6EBA1
:100CA000020E75EB030E22BFB61A754640EA0C0021
:100CB0005B084FEA3202B6EB020E75EB030E22BF61
:100CC000B61A754640EA5C005B084FEA3202B6EBA2
:100CD000020E75EB030E22BFB61A754640EA9C0061
:100CE0005B084FEA3202B6EB020E75EB030E22BF31
:100CF000B61A754640EADC0055EA060E18D04FEAEF
:100D0000051545EA16754FEA06164FEAC30343EA8E
:100D100052734FEAC2025FEA1C1CC0D111F4801F5B
:100D20000BD141EA00014FF000004FF0004CB6E754
:100D300011F4801F04BF01430020B4F1FD0C88BFF3
:100D4000BCF5E06F3FF6AFAEB5EB030C04BFB6EBFE
:100D5000020C5FEA500C50F1000041EB045170BDF1
:100D60000EF0004E4EEA113114EB5C04C2BFD4EB1E
:100D70000C0541EA045170BD41F480114FF0000EA2
:100D8000013C90E645EA060E8DE60CEA135594EA1E
:100D90000C0F08BF95EA0C0F3FF43BAF94EA0C0F21
:100DA0000AD150EA01347FF434AF95EA0C0F7FF496
:100DB00025AF104619462CE795EA0C0F06D152EAEA
:100DC00003353FF4FDAE1046194622E750EA4106CE
:100DD00018BF52EA43067FF4C5AE50EA41047FF4DF
:100DE0000DAF52EA43057FF4EBAE12E74FF0FF3C44
:100DF00006E000BF4FF0010C02E000BF4FF0010C15
:100E00004DF804CD4FEA410C7FEA6C5C4FEA430C8D
:100E100018BF7FEA6C5C1BD001B050EA410C0CBFDC
:100E200052EA430C91EA030F02BF90EA020F00203E
:100E3000704710F1000F91EA030F58BF994208BFA5
:100E400090422CBFD8176FEAE37040F00100704762
:100E50004FEA410C7FEA6C5C02D150EA013C07D1B9
:100E60004FEA430C7FEA6C5CD6D152EA033CD3D004
:100E70005DF8040B704700BF8446104662468C46FE
:100E80001946634600E000BF01B5FFF7B7FF002831
:100E900048BF10F1000F01BD4DF808EDFFF7F4FF5A
:100EA0000CBF012000205DF808FB00BF4DF808EDE5
:100EB000FFF7EAFF34BF012000205DF808FB00BF08
:100EC0004DF808EDFFF7E0FF94BF012000205DF82A
:100ED00008FB00BF4DF808EDFFF7CEFF94BF0120DF
:100EE00000205DF808FB00BF4DF808EDFFF7C4FFD8
:100EF00034BF012000205DF808FB00BF4FEA41022B
:100F000012F5001215D211D56FF47873B3EB62525B
:100F100012D94FEAC12343F0004343EA505311F082
:100F2000004F23FA02F018BF404270474FF0000014
:100F3000704750EA013005D111F0004008BF6FF052
:100F4000004070474FF00000704700BF73B96AB9A6
:100F5000002908BF0028BCBF00204FF00041C4BFDB
:100F60006FF000414FF0FF3001F00EB882B0EC4658
:100F70002DE9005000F056F8DDF804E002B00CBC9A
:100F8000704700BF4BB942B9002908BF002802D002
:100F90004FF0FF31084600F0F7BF82B0EC462DE974
:100FA000005000F057F8DDF804E002B00CBC7047C8
:100FB00038B50022002304460D46FFF777FF28B915
:100FC00020462946BDE8384000F00AB8204605F121
:100FD000004100F005F8404261EB410138BD00BF1F
:100FE00070B500220D4B04460D46FFF7EDFC00F0F6
:100FF000CDFF0646FFF772FC0022094BFFF7E4FC29
:1010000002460B4620462946FFF72AFB00F0BEFFAA
:10101000002242EA00042046314670BD0000F03D47
:101020000000F0412DE97043069E14461D4680469F
:10103000894600F0CBFF04FB01F300FB0533A4FB62
:1010400000451D44B8EB040469EB0505C6E90045FD
:10105000BDE870832DE97043069E1446804689469C
:101060001D4601F0FFF800FB05F504FB0153A0FB52
:1010700004451D44B8EB040469EB0505C6E90045C9
:10108000BDE8708303685A004CBF43F0004323F06F
:1010900000431844704700BF2DE9F04F064683B067
:1010A000914621B3013901918846002707EB0804D6
:1010B00004EBD4746410E50006EB050B5846FFF70B
:1010C000E1FF019B8246A34205F10800304419D09C
:1010D000FFF7D8FFCA4500F1FF3004D9BC420BD05E
:1010E00004F1FF38E2E7484502D2671CDEE78B4691
:1010F000584603B0BDE8F08F4FF0000B584603B0E0
:10110000BDE8F08FCA45E9D8F2E700BF012807D053
:10111000022807D0044B00280CBF18460020704757
:1011200002487047024870473D180000451800000B
:101130004D18000030B5274B83B004468D1E002BA0
:1011400042D0284601A9AFF30080034623B32A46C4
:101150000199FFF7A1FF054618B3FFF793FF6B68EE
:10116000A064012B12D0002B05F1040028DBFFF74F
:1011700089FF0023E06423650368002B16DBFFF77B
:1011800081FF00232061184603B030BD0023236196
:101190000523184603B030BD23610923184603B068
:1011A00030BD09232061184603B030BDC3F303608E
:1011B000FFF7ACFF0028206114BF00230923E2E7FA
:1011C0000123E0642365D7E7034B04481B1ADB10B7
:1011D0000193BCE7000000004C7B0000747A000023
:1011E0000368DA0710B5044606D49B0700F14800EF
:1011F00009D500F069FC2368590709D51A070ED5EF
:10120000DB0613D510BD00F057FC23685907F5D451
:1012100004F1D00000F060FC23681A07F0D404F554
:10122000A87000F061FC2368DB06EBD404F5E870DD
:10123000BDE8104000F09CBC03680BB11844704737
:101240001846704709207047704700BF70B50446C4
:101250000D4608E02B6C63610120236921462A4674
:101260009847082808D12046296CFFF763FF0646F7
:101270000028EFD005F01AFE0728FBD13046296C74
:10128000FFF7E2FF281D00F00BFC00BF2DE9F0473F
:101290000C1D054617460FCCADF5727D03AE0FC68B
:1012A0000FCC0FC60FCC0FC694E80F0002AC4FF066
:1012B000000ED5F80C80D5F8189086E80F00284667
:1012C000216CC4F800E0FFF735FF002F064614BF7D
:1012D0000A27092786B1A06B2A468DE8100247F03D
:1012E000100160642B460120C04700282FD13046F2
:1012F0000DF5727DBDE8F087236C6B6121464FF4DC
:10130000F0727AA805F01AFE2B6929467AAA3846A7
:101310009847889B82468DE8100239466364012015
:101320002A462B46C04790B920467AA94FF4F0725E
:1013300005F004FEBAF1080F06D12846216CFFF72C
:10134000F9FE09270646C5E7BAF1070F04D00920C0
:101350000DF5727DBDE8F0873046216CFFF774FF14
:1013600003A800F09DFB00BF406C7047F0B5CB6B4D
:101370000B640E1D0F4604460FCEF9B001AD0FC52C
:101380000FCE0FC50FCE0FC596E80F004FF0FF36FA
:1013900085E80F00009606E0236921466A469847D3
:1013A0000828054608D120461099FFF7C3FE0028FB
:1013B000F2D0092079B0F0BD6846FFF711FF062D85
:1013C000F7D120463946FFF741FF00BF30B4DD6B4F
:1013D000C160826119461D64002230BCFFF756BF10
:1013E00070B5C66843690B6404460D4626B10122F8
:1013F000FFF74CFF05F05AFD0369214602202A46FB
:101400009847072807D0082803D120462946FFF728
:101410001DFF05F04BFD3046296CFFF715FF281D19
:1014200000F03EFBC26822B1CA6B0A640022FFF7DB
:101430002DBF9BE7704700BF08B5836813B1014615
:101440000120984708BD00BF10B4042909D8DFE87F
:1014500001F007030803030001205DF8044B704707
:101460001BB102205DF8044B70470F2AF9D800EB3E
:10147000820218465368019A1360EEE700B585B002
:101480000A4603AB002100930B46FFF7DDFF0398EC
:1014900005B05DF804FB00BF10B4042909D8DFE8EB
:1014A00001F007030803030001205DF8044B7047B7
:1014B0001BB102205DF8044B70470F2AF9D800EBEE
:1014C00082020198016851601846EEE710B584B0B9
:1014D00004AB0C4643F8042D0021009322460B4632
:1014E000FFF7DAFF04B010BDF0B5D36B1364151D20
:1014F00007460E460FCDADF50F7D17AC0FC40FCDCF
:101500000FC40FCD0FC495E80F004FF0FF3584E8EE
:101510000F00169510E016A8FFF7D8FF314616A861
:10152000B847694616AA78B9049B08209847052849
:1015300004460AD0092807D026996846FFF7FAFD25
:101540006A460C210028E6D0092416A8FFF748FEB9
:1015500020460DF50F7DF0BD2DE9F04F0C46C96C0E
:101560008BB01D460E1D0B6807939046089600F041
:101570000309002D40F089801B02032207938DF898
:1015800025508DF82420236DB9F1020F08BFA66BFA
:1015900013F0010342D100F00800C0B2039002939F
:1015A0003768002F3CD0022D6BD03788B6F802A0E8
:1015B0000436A36C2AF0010B40460F219B44FFF731
:1015C0005DFF834536D827F001039B440AF0010AEA
:1015D00007F00107584547EA4A072CBF00200120C1
:1015E000012F31D060D3022F20D1336823F0004186
:1015F0000191B9F1000F40F0858030B1039A002AC3
:1016000000F08D80002900F0B080002BC0F28580B2
:10161000019B03F1010A06EB8A06C1E70021029152
:10162000022D49DDFFF70EFE00284BD009200BB03C
:10163000BDE8F08F0AF0010A07F0010747EA4A0700
:10164000012F4FF00000CDD1B9F1000F41D1B0B161
:1016500096E80C00D70F9A1CE8D004F1580101332A
:10166000069100F0AD80301DFFF7E6FD3A460146D9
:1016700006AB2046AFF30080002840F0CF8008364C
:101680008EE7D6F804A0083693E7022D3FF77BAF2C
:101690001A0CD7B21B0402218DF8252006EB870611
:1016A00007938DF824106EE7B9F1000F02D00028DF
:1016B00040F09080043673E7404607A900F0F0FA46
:1016C0000028B3D1029A002A59D108200BB0BDE8F6
:1016D000F08F40460D21276AFFF7D0FE8742CED11A
:1016E000A36A9E42CBD13046FFF7CCFC0F210246C5
:1016F0004046FFF7EBFE404622460021FFF7E6FE9C
:10170000072094E740460D21276AFFF7B7FE87427E
:1017100045D03368002BBFF67BAF043678E70199DC
:1017200019B304F1580CCDF810900595371DDDF86C
:101730000CB0DDF80490654602E0CA4515D0D346EA
:1017400038460695FFF778FD0022014606AB204695
:10175000AFF300800BF1010A04370028EDD0019BA4
:10176000DDF81090059D5B45D3D140460D21FFF774
:1017700085FE069B2062A6626362062057E70F2162
:101780004046FFF77BFE0E2102464046FFF79EFED5
:1017900040460F21284AFFF799FE072047E7A36A32
:1017A0009E42B6D104220027B3180199A162E762D4
:1017B000226363633368BB421FDB0122029227E787
:1017C00040460D21FFF75AFE2062069B6362A66227
:1017D00006202CE73046FFF755FC04360546A66385
:1017E0002046AFF3008000283FF420AF40462A4651
:1017F0000F21FFF76BFE072019E7481C06EB80005E
:10180000FFF740FC0F2102464046FFF75FFE4046CF
:1018100039462246FFF75AFE072008E707460D2102
:101820004046FFF72BFE022F2062CED12346069AB8
:1018300043F82C2F6362CAE7000000000023FFF783
:101840008BBE00BF0123FFF787BE00BF0223FFF757
:1018500083BE00BF2DE9F0410446C4B004290BD873
:10186000DFE801F059030A300E00012B4FEA124560
:1018700096B266D0052B6BD0022044B0BDE8F08153
:10188000002BF9D1102AF7D82368D90600F1D380AC
:1018900022AE3046019200F075F9A56B019A002343
:1018A000012000FA03F1114203D0296846F8231001
:1018B00004350133042BF4D13046A56300F058F908
:1018C0000020DAE7032BD7D1150C97B27B19102B28
:1018D000D2D823681E0700F1BF8022AE304600F048
:1018E00025F9D4F838E07F0006EBC5007B1E724670
:1018F0005FB1CEEB0000AEF10402013B52F8041FD1
:1019000081505D1CF9D10EEB87023046A26300F0D6
:10191000EBF80020B1E7002BAED1A56B96B2012009
:1019200000FA03F1314204D004EB8307296879609F
:1019300004350133102BF3D112F4005075D1A56397
:101940009BE77219102A97D80F2D95D8002708E029
:101950007719202F90D80F2D69D9374646B30F2D10
:1019600011D82268D0070ED522F00101052B216085
:10197000204600F08B8022F0030240F8482B0193B0
:1019800000F09EF8019B17B1226851076CD4012B1F
:1019900074D00F2D04D822A8019300F099F8019B70
:1019A00037B102A8019300F09BF8019BC5F1100626
:1019B000D4F83880002EC44612DD22AA4FEA460C25
:1019C00002EBC506C8EB06060CF1FF31A8F10402D4
:1019D00052F8040FB0500139481CF9D108EB8C0CB7
:1019E000B7B144AA102D2CBF2846102002EBC0002E
:1019F0004FEA4708A0F5C47008F1FF32614651F87C
:101A0000046B40F8046B013A561CF8D10CEB880CBF
:101A1000012B1AD00F2DC4F838C002D822A800F02C
:101A200053F817B102A800F057F8002025E7102F4F
:101A30008CD9103F93E723F01003236004F5E8707E
:101A4000019200F09FF8019A22E70CF10403A363CE
:101A500022A800F031F8E8E723F00803236004F53A
:101A6000A87000F063F838E7204622F0040240F83E
:101A7000D02B019300F034F8019B88E722A8019352
:101A800000F01EF8019B002F90D191E741F0020178
:101A900040F8481B019300F01BF8019B73E700BF5F
:101AA00000F1340191E838009C46A6464CF8045DEC
:101AB00090E8FF0FE54600BD90EC210B704700BF9A
:101AC00080EC210B704700BF90EC200B704700BFEB
:101AD00080EC200B704700BFD0EC200B704700BF9C
:101AE000C0EC200B704700BFF0EC0201F0EC0211DB
:101AF000F0EC0221F0EC0231F0EC0241F0EC02518A
:101B0000F0EC0261F0EC0271F0EC0281F0EC029179
:101B1000F0EC02A1F0EC02B1F0EC02C1F0EC02D169
:101B2000F0EC02E1F0EC02F1704700BFE0EC0201E2
:101B3000E0EC0211E0EC0221E0EC0231E0EC0241C9
:101B4000E0EC0251E0EC0261E0EC0271E0EC0281B9
:101B5000E0EC0291E0EC02A1E0EC02B1E0EC02C1A9
:101B6000E0EC02D1E0EC02E1E0EC02F1704700BFF2
:101B7000B0FC0181B0FC0191B0FC01A1B0FC01B14D
:101B8000704700BFA0FC0181A0FC0191A0FC01A155
:101B9000A0FC01B1704700BFEC4600B52DE9005034
:101BA0002DE9FF1F4FF000032DE90C0001A9FFF7FD
:101BB000DDFBDDF840E012B0704700BFEC4600B539
:101BC0002DE900502DE9FF1F4FF000032DE90C0017
:101BD00001A9FFF705FCDDF840E012B0704700BF37
:101BE000EC4600B52DE900502DE9FF1F4FF0000332
:101BF0002DE90C0001A9FFF715FCDDF840E012B05B
:101C0000704700BFEC4600B52DE900502DE9FF1FDD
:101C10004FF000032DE90C0001ABFFF7D7FBDDF817
:101C200040E012B0704700BFEC4600B52DE900500F
:101C30002DE9FF1F4FF000032DE90C0001AAFFF76B
:101C400053FCDDF840E012B0704700BF037A1BB9C7
:101C5000437A43B9B02070470268013B0372130214
:101C60000360100E70474268013B4372111D1268F9
:101C700041600323037213020360100E704700BF1C
:101C800000B585B003AB002100930C220B46FFF793
:101C9000DBFB039805B05DF804FB00BFFFF7F0BF66
:101CA0002DE9F043064685B00D464FF00008284662
:101CB000FFF7CCFFB028044600F0AC8020F07F0294
:101CC00012F0FF0120D000F0F002802A73D0902A99
:101CD00036D0A02A42D0B02A56D0C02A00F0828046
:101CE00000F0F803D02B0BD100F00704621C42F483
:101CF0000022304601210523FFF7ACFD0028D6D095
:101D0000092005B0BDE8F08303AF4FEA80090B4618
:101D1000009730460D22FFF797FB5FFA89F9039B86
:101D200009F1040960064CBFC9EB03034B4403935C
:101D3000002100970B4630460D22FFF7ADFBB6E7BA
:101D400000F00D030D2BDBD003AF002100F00F02DC
:101D500000970B463046FFF777FBE9E7C2434FF4A5
:101D60007F6302F0070243FA02F2010702EA03026C
:101D70004FF0000148BF42F480420B463046FFF767
:101D800069FD0028BCD192E7B12848D0B22851D0D3
:101D9000B3287CD000F0FC03B42BB1D000F00702D4
:101DA0000132012142F400220B463046FFF752FD7A
:101DB0000028A5D17BE72846FFF748FF24022043EF
:101DC000B0F5004F9CD004010021A2B20B46304672
:101DD000FFF740FD002893D114F4004F18BF4FF0D7
:101DE000010864E7C6285ED0C72868D000F0F80371
:101DF000C02B77D0C82800F08D80C92880D1284614
:101E0000FFF724FF00F00F03013300F0F00243EA74
:101E100002326EE7B8F1000F6BD0002071E7284660
:101E2000FFF714FF024600283FF46AAF10F0F001FC
:101E3000BAD065E7002103AF0D220B46009730466C
:101E4000FFF702FB2846FFF701FF02064FF00204EE
:101E50000CD5039B00F07F00A04003442846039369
:101E6000FFF7F4FE030604F10704F2D4039B009786
:101E700000F07F0000FA04F403F5017300211C4414
:101E800030460B460D220394FFF706FB0FE728466A
:101E9000FFF7DCFE00F00F03013300F0F002012138
:101EA00043EA023280E72846FFF7D0FE00F00F0336
:101EB000013300F0F002032143EA023274E72846BE
:101EC000FFF7C4FE024600283FF41AAF10F0F003FB
:101ED0007FF416AF30460421FFF7BCFC00287FF4E6
:101EE0000FAFE4E600F00F020132032142F420229A
:101EF0005AE703AC41460E22434600943046FFF7B2
:101F0000A3FA0094304641460F224346FFF7C4FA35
:101F10004046F6E62846FFF799FE00F0F00200F092
:101F20000F031032013343EA0232E2E600B5C36C1C
:101F300085B05A6803208DF80C0008461102019103
:101F4000DA798DF80D20083301A90293FFF7A8FE76
:101F500005B05DF804FB00BF08B5FFF79FFE806C7D
:101F600008BD00BF08B5FFF799FEC36CDA7903EB33
:101F70008200083008BD00BF08B504F097FF00BF1D
:101F800008B504F093FF00BF704700BF4A0011D2AC
:101F900012F5001211D20DD56FF47873B3EB6252C3
:101FA0000ED44FEAC12343F0004343EA505323FACF
:101FB00002F070474FF00000704750EA013002D144
:101FC0004FF0FF3070474FF00000704700292DE9B7
:101FD000F00FC0F29F800024002BC0F296801546BF
:101FE00006460F46002B3ED18A4257D9B2FA82F3F9
:101FF0004BB1C3F1200201FA03F720FA02F29D402F
:10200000174300FA03F6290CB7FBF1F2330C01FB7E
:10201000127CA8B243EA0C4700FB02F3BB4209D989
:102020007F1902F1FF3C80F00181BB4240F2FE804B
:10203000023A2F44FF1AB7FBF1F3B6B201FB13715A
:1020400046EA014100FB03F0884208D9491903F12F
:10205000FF3780F0ED80884240F2EA80023B43EA9D
:102060000242002303E08B420AD900231A4610469D
:10207000194614B1404261EB4101BDE8F00F7047D1
:10208000B3FA83F8B8F1000F40F084808B4202D39A
:10209000824200F2DE8000230122E8E712B9012328
:1020A000B3FBF2F5B5FA85F2002A39D17F1B280C73
:1020B0001FFA85FC0123B7FBF0F1320C00FB11770E
:1020C00042EA07470CFB01F2BA4207D97F1901F136
:1020D000FF3802D2BA4200F2C1804146BF1AB7FBB4
:1020E000F0F2B6B200FB127046EA00400CFB02FCB4
:1020F000844507D9401902F1FF3702D2844500F226
:10210000AB803A4642EA0142B1E7E443524263EB14
:10211000430364E7404261EB41014FF0FF345BE76A
:102120009540C2F1200327FA03F1280C26FA03F3A5
:102130009740B1FBF0F81F433B0C00FB18111FFA4E
:1021400085FC43EA01410CFB08F38B4206FA02F6D8
:1021500008D9491908F1FF3279D28B4277D9A8F111
:1021600002082944C91AB1FBF0F3BFB200FB1311F6
:1021700047EA01470CFB03F2BA4207D97F1903F182
:10218000FF3160D2BA425ED9023B2F44BF1A43EA04
:10219000084390E7C8F1200203FA08FC25FA02F38D
:1021A00043EA0C0C4FEA1C4921FA02F301FA08F742
:1021B00020FA02F2B3FBF9F1174309FB11333A0C91
:1021C0001FFA8CFB42EA03430BFB01FA9A4505FA1E
:1021D00008F008D913EB0C0301F1FF3235D29A4510
:1021E00033D902396344CAEB0303B3FBF9F209FBA9
:1021F0001233BFB247EA03470BFB02F9B94508D9CE
:1022000017EB0C0702F1FF331BD2B94519D9023A7B
:10221000674442EA0145A5FB0001C9EB07078F426D
:102220004FF000030AD305D02A4620E7624601E7B3
:102230003B4614E706FA08F68642F5D26A1E0023EA
:1022400015E71A46E5E70B46A0E71146CBE79046AF
:1022500088E7434642460AE7023A53E702392F44E9
:102260003CE700BF2DE9F00F144605460E46002B53
:1022700043D18A4253D9B2FA82F757B1C7F1200647
:1022800020FA06F601FA07F302FA07F41E4300FAF1
:1022900007F5210CB6FBF1F22B0C01FB1267A0B283
:1022A00043EA074600FB02F3B34209D9361902F1AB
:1022B000FF3780F0F680B34240F2F380023A2644C2
:1022C000F61AB6FBF1F3ADB201FB136145EA014129
:1022D00000FB03F0884208D9091903F1FF3680F0AA
:1022E000E280884240F2DF80023B43EA0242002360
:1022F00010461946BDE8F00F70478B424AD8B3FA32
:1023000083F6002E4DD18B4202D3824200F2D6805A
:102310000023012210461946BDE8F00F704712B99C
:102320000124B4FBF2F4B4FA84F2002A7CD1091B34
:10233000260CA7B20123B1FBF6F02A0C06FB101104
:1023400042EA014107FB00F28A4207D9091900F16C
:10235000FF3C02D28A4200F2C3806046891AB1FB78
:10236000F6F2ADB206FB121145EA014507FB02F792
:10237000AF4208D92C1902F1FF3180F09680A742B4
:1023800040F29380023A42EA004210461946BDE804
:10239000F00F704700231A4610461946BDE8F00FAB
:1023A0007047C6F1200522FA05F4B3401C434FEAFA
:1023B000144821FA05F301FA06F720FA05F5B3FBF4
:1023C000F8FC2F4308FB1C333D0C1FFA84FA45EA46
:1023D00003430AFB0CF9994502FA06FB04D91B19C1
:1023E0000CF1FF326DD39446C9EB0303B3FBF8F550
:1023F00008FB1533BFB247EA03470AFB05F8B845A7
:1024000004D93F1905F1FF3361D31D4645EA0C4C51
:10241000ACFB0B23C8EB07079F424FF0000549D3E5
:1024200045D062462B4663E79440C2F1200321FA6F
:1024300003FC260C20FA03F301FA02F5BCFBF6F8C4
:1024400043EA05010B0C06FB18CCA7B243EA0C4C7F
:1024500007FB08F3634500FA02F509D91CEB040CED
:1024600008F1FF323AD2634538D9A8F10208A444F2
:10247000C3EB0C0CBCFBF6F389B206FB13CC41EAB0
:102480000C4107FB03F28A4207D9091903F1FF3017
:1024900022D28A4220D9023B2144891A43EA0843C6
:1024A00049E73A460CE733461FE70A466BE7B04078
:1024B0009042B6D20CF1FF32002319E73346324680
:1024C00016E799458FD9ACF1020C23448CE7B84547
:1024D0009BD9023D274499E70346DEE79046C7E7CC
:1024E000023821443AE700BF80B483B000AF78607F
:1024F0000B46FB70FB78002B06D07B689B6843F48F
:1025000000227B689A6005E07B689B6823F40022C8
:102510007B689A600C37BD465DF8047B704700BF4E
:1025200080B483B000AF78600B46FB70FB78002B63
:1025300006D07B689B6843F480227B689A6005E044
:102540007B689B6823F480227B689A600C37BD46C9
:102550005DF8047B704700BF80B588B000AFF860BD
:10256000B9603B601346FB711C4B1B78002B01D0FC
:1025700001232EE0194BFA791A70FB79022B27D12F
:10258000FA68164B5A6007F11403184602F0C4F9B2
:10259000BB687B61114B5A6807F11403104619465A
:1025A0003A6802F045F80D4B5B6818460121FFF7C9
:1025B0009BFF0A4B5B6818460121FFF7B1FF074BF1
:1025C000074A9A60054B074ADA6000BF002300E023
:1025D000042318462037BD4680BD00BF9400FF1F6E
:1025E000354A0000754A00000FB480B582B000AFD4
:1025F0000B4B1B78002B02D14FF0FF3309E007F1A2
:1026000014033B60074839693A6800F091FA786032
:102610007B6818460837BD46BDE8804004B0704767
:102620009400FF1F2926000080B582B000AF7860BB
:102630000A4B1B78002B02D14FF0FF3309E0074B08
:102640009B68064A51683A1D084611460122984780
:10265000012318460837BD4680BD00BF9400FF1F08
:1026600080B586B000AFB9607A603B600346FB730B
:10267000BB687B610CE097F90F203B6A10469847D6
:102680003B681B685A1C3B681A607B6901337B619D
:102690007A697B689A42EEDB1837BD4680BD00BF81
:1026A00080B592B000AFF860B9607A603B600023FB
:1026B0007B62FB683B623B6A5A1C3A6200221A70DA
:1026C0007B68002B65D0BB68D3E90023C7E91023E2
:1026D000D7E9102352EA030107D13B6A30221A706E
:1026E0007B6A01337B627B6AC1E04CE03B681A463F
:1026F0004FEAE273D7E91001FEF728FC02460B46C9
:10270000C7E906233B681A464FEAE273B96903FB3F
:1027100001F0F96902FB01F10144B869A0FB022351
:1027200019440B46D7E91001821A61EB0303C7E98C
:102730000E23D7E90E23002A73F100010FDAD7E93F
:102740000E23C7E90A23D7E90A234FF030004FF0E0
:102750000001821A61EB0303C7E90E2306E0D7E903
:102760000E23303243F10003C7E90E23D7E90623D5
:10277000C7E910233B6A5A1C3A6297F838201A704E
:102780007B6A01337B62D7E9102352EA0301ADD1A2
:102790006CE0BB68D3E90023C7E90C23D7E90C231D
:1027A00052EA030107D13B6A30221A707B6A013377
:1027B0007B627B6A5BE054E03B681A464FEAE27357
:1027C000D7E90C01FEF7DEFB02460B46C7E90423FE
:1027D0003B681A464FEAE273396903FB01F07969F5
:1027E00002FB01F101443869A0FB022319440B46A6
:1027F000D7E90C01821A61EB0303C7E90A23D7E981
:102800000A23002B08BF0A2A07D2D7E90A2330324D
:1028100043F10003C7E90A2316E097F85030002B74
:1028200004D04FF041024FF0000303E04FF061028B
:102830004FF00003D7E90A01121843EB01030A3AEB
:1028400043F1FF33C7E90A23D7E90423C7E90C237F
:102850003B6A5A1C3A6297F828201A707B6A013347
:102860007B62D7E90C2352EA0301A5D17B6A1846A3
:102870004837BD4680BD00BFB0B598B000AFF86026
:10288000B9607A603B600023FB63FB68BB63BB6B92
:102890005A1CBA6300221A70BB68D3E90023C7E947
:1028A0000C23D7E90C014FF000024FF00003FEF7B4
:1028B000F3FA0346002B07D0BB6B30221A70FB6B78
:1028C0000133FB63FB6B23E107F1100397ED0C0B66
:1028D000184603F03DF987ED100B00237B650FE0F0
:1028E0007868FEF70BF802460B46D7E91001FEF7B1
:1028F0006BF802460B46C7E910237B6D01337B65FD
:102900007A6D3B689A42EBD3D7E90C014FF0000295
:102910004FF00003FEF7DEFA0346002B2FD0D7E975
:1029200010014FF00002804BFDF79CFE02460B4663
:10293000C7E912233868FDF7D1FF02460B469FED29
:10294000760B43EC112B03F055F953EC102B10468A
:102950001946D7E91223FEF7B3FA0346002B00D13C
:102960003BE0D7E90423104619464FF000026F4BB5
:10297000FDF778FE02460B46C7E904232DE0D7E9B0
:1029800010014FF00002684BFDF76AFE02460B464D
:10299000C7E912233868FDF7A1FF02460B469FEDF9
:1029A000600B43EC112B03F025F953EC102B104670
:1029B0001946D7E91223FEF78DFA0346002B0CD0F7
:1029C000D7E90423104619464FF00002574BFDF794
:1029D00047FE02460B46C7E9042300237B654EE011
:1029E0007868FDF78BFF02460B46D7E91201FEF728
:1029F00015F902460B46C7E90A23D7E90A01FEF793
:102A0000D7FA7B681A464FEAE27302FB01F500FB36
:102A100003F42C44A0FB0223E1180B461046194690
:102A2000FDF7A4FF02460B46D7E91201FDF718FE99
:102A300002460B46C7E90823D7E90801FEF75EFA0C
:102A40000346BB65BB6D002B06DABB6DFB61FB6902
:102A5000C3F13003BB6502E0BB6D3033BB65D7E922
:102A60000A23C7E91223BB6B5A1CBA63BA6DD2B2F0
:102A70001A70FB6B0133FB637B6D01337B657A6DF1
:102A80003B689A42ACD3BB6B5A1CBA632E221A70B5
:102A9000FB6B0133FB63D7E9042310461946FEF7AD
:102AA0002DFA0346FB65FB6D002B08D1BB6B5A1C4E
:102AB000BA6330221A70FB6B0133FB6327E023E01B
:102AC000FA6D7B6892FBF3F3BB61BB697A6802FB2A
:102AD00003F3FA6DD31ABB65BB6D002B06DABB6D31
:102AE000FB61FB69C3F13003BB6502E0BB6D3033B2
:102AF000BB65BB69FB65BB6B5A1CBA63BA6DD2B2CE
:102B00001A70FB6B0133FB63FB6D002BD8D1FB6BA1
:102B100018466037BD46B0BD0000000000002440EC
:102B200000000000000024C00000E03F0000F03F73
:102B300080B5A4B002AFF860B9607A600023C7F82E
:102B400080300023FB670023FB62002387F86A3094
:102B50004FF000024FF00003C7E90623BB68C7F837
:102B6000843000F027BCBB6D252B07D0FB68B86D07
:102B70009847FB6A0133FB6200F017BC012387F81A
:102B80006B3000237B660023BB6752E0D7F88430AC
:102B90000133C7F88430D7F884301B785BB2203B10
:102BA000102B3ED801A151F823F000BF052C0000E6
:102BB000232C0000232C0000192C0000232C0000E3
:102BC000232C0000232C0000232C0000232C0000C9
:102BD000232C0000232C0000FB2B0000232C0000E2
:102BE000F12B0000232C0000232C00000F2C0000F0
:102BF0007B6E43F001037B661BE07B6E43F00203B8
:102C00007B6616E07B6E43F004037B6611E07B6E0F
:102C100043F008037B660CE07B6E43F010037B6699
:102C200007E0D7F88430013BC7F884300123BB6745
:102C300000BFBB6F002BA9D000237B670023BB67BD
:102C400021E0D7F884300133C7F88430D7F88430D6
:102C50001B785BB2BB65BB6D2F2B0DDDBB6D392BBC
:102C60000ADC7A6F13469B0013445B001A46BB6D67
:102C70001344303B7B6706E0D7F88430013BC7F84C
:102C800084300123BB67BB6F002BDAD006233B6780
:102C9000D7F884300133C7F88430D7F884301B78F4
:102CA0005BB22E2B2AD100233B670023BB6721E0B8
:102CB000D7F884300133C7F88430D7F884301B78D4
:102CC0005BB2BB65BB6D2F2B0DDDBB6D392B0ADCF9
:102CD0003A6F13469B0013445B001A46BB6D1344C6
:102CE000303B3B6706E0D7F88430013BC7F88430BF
:102CF0000123BB67BB6F002BDAD004E0D7F8843028
:102D0000013BC7F88430D7F884300133C7F88430EA
:102D1000D7F884301B785BB2682B02D06C2B1AD0AA
:102D200033E0D7F884300133C7F88430D7F88430E3
:102D30001B785BB2682B09D07B6E43F040037B6647
:102D4000D7F88430013BC7F8843024E07B6E43F031
:102D500020037B661FE0D7F884300133C7F8843046
:102D6000D7F884301B785BB26C2B09D07B6E43F0B4
:102D700080037B66D7F88430013BC7F884300AE0D3
:102D80007B6E43F480737B6605E0D7F88430013BAB
:102D9000C7F8843000BFD7F884300133C7F88430D7
:102DA000D7F884301B785BB2BB65BB6D642B1BD03E
:102DB000BB6D692B18D0BB6D662B15D0BB6D462B38
:102DC00012D0BB6D782B0FD0BB6D582B0CD0BB6DC8
:102DD0006F2B09D0BB6D622B06D0BB6D702B03D05F
:102DE000BB6D752B40F08C82BB6D642B03D0BB6D2B
:102DF000692B40F095807B6E03F48073002B0BD021
:102E00007B68073323F0070303F108027A60D3E9F4
:102E10000023C7E9082308E07B681A1D7A601B6855
:102E20001A464FEAE273C7E9082307F1300207F1B7
:102E3000200397F86B1000911046194601220A23CF
:102E4000FFF72EFCF86707F13002FB6F1344C7F859
:102E50008030D7E90823002A73F1000105DA2D2319
:102E60003B66FB6F0133FB6717E07B6E03F00203E9
:102E7000002B05D02B233B66FB6F0133FB670CE077
:102E80007B6E03F00403002B05D020233B66FB6F11
:102E90000133FB6701E000233B660023FB657B6E8B
:102EA00003F00803002B16D03B6E002B05D0FB6807
:102EB000386E9847FB6A0133FB620123FB657A6F2A
:102EC00007F12C03F96800913020F96FFFF7C8FB78
:102ED0007B6FFB6718E07B6E03F00103002B13D1BF
:102EE0007A6F07F12C03F96800912020F96FFFF742
:102EF000B7FB3B6E002B05D0FB68386E9847FB6A2A
:102F00000133FB620123FB65FB6D002B08D13B6E97
:102F1000002B05D0FB68386E9847FB6A0133FB62D3
:102F2000BB6D662B03D0BB6D462B40F08A807B685F
:102F3000073323F0070303F108027A60D3E9002383
:102F4000C7E9042307F1300207F1100310461946C0
:102F50000A223B6FFFF790FCF86707F13002FB6F26
:102F60001344C7F88030D7E90423104619464FF0C0
:102F700000024FF00003FDF799FF0346002B05D038
:102F80002D233B66FB6F0133FB6717E07B6E03F07D
:102F90000203002B05D02B233B66FB6F0133FB673D
:102FA0000CE07B6E03F00403002B05D020233B666E
:102FB000FB6F0133FB6701E000233B660023FB65E9
:102FC0007B6E03F00803002B16D03B6E002B05D060
:102FD000FB68386E9847FB6A0133FB620123FB658F
:102FE0007A6F07F12C03F96800913020F96FFFF731
:102FF00037FB7B6FFB6718E07B6E03F00103002B50
:1030000013D17A6F07F12C03F96800912020F96F32
:10301000FFF726FB3B6E002B05D0FB68386E984708
:10302000FB6A0133FB620123FB65FB6D002B08D1BA
:103030003B6E002B05D0FB68386E9847FB6A013366
:10304000FB62BB6D582B03D0BB6D782B40F0A68084
:10305000BB6D782B02D1002387F86B307B6E03F4B5
:103060008073002B0BD07B68073323F0070303F139
:1030700008027A60D3E90023C7E9062308E07B68E9
:103080001A1D7A601B681A464FF00003C7E9062331
:1030900007F1300207F1180397F86B100091104602
:1030A000194600221023FFF7FBFAF86707F13002F8
:1030B000FB6F1344C7F880300023FB657B6E03F081
:1030C0000803002B22D07B6E03F01003002B11D0DD
:1030D000FB683020984797F86B30002B01D05823BD
:1030E00000E07823FA6818469047FB6A0233FB62D7
:1030F0000123FB657A6F07F12C03F96800913020FA
:10310000F96FFFF7ADFA7B6FFB672CE07B6E03F086
:103110000103002B27D17B6E03F01003002B02D09C
:10312000FB6F0233FB677A6F07F12C03F96800919C
:103130002020F96FFFF794FA7B6E03F01003002B49
:1031400011D0FB683020984797F86B30002B01D0E6
:10315000582300E07823FA6818469047FB6A023348
:10316000FB620123FB657B6E03F01003002B15D07F
:10317000FB6D002B12D1FB683020984797F86B301D
:10318000002B01D0582300E07823FA6818469047B6
:10319000FB6A0233FB62FB6F0233FB67BB6D6F2B75
:1031A0000BD17B681A1D7A601B681A464FF000032A
:1031B000C7E90623082387F86A30BB6D622B11D15B
:1031C0007B681A1D7A601B681A464FF00003C7E936
:1031D0000623022387F86A3007F13002FB6F13449D
:1031E000C7F88030BB6D702B11D17B681A1D7A60D7
:1031F0001B681A464FF00003C7E90623102387F81F
:103200006A3007F13002FB6F1344C7F88030BB6DA2
:10321000752B11D17B681A1D7A601B681A464FF016
:103220000003C7E906230A2387F86A3007F1300252
:10323000FB6F1344C7F88030BB6D6F2B08D0BB6D9C
:10324000622B05D0BB6D702B02D0BB6D752B34D1BA
:1032500097F86A3007F1300107F1180297F86B0010
:103260000090084611460022FFF71AFAF86707F1A6
:103270003002FB6F1344C7F880307B6E03F0080305
:10328000002B0BD07A6F07F12C03F96800913020E6
:10329000F96FFFF7E5F97B6FFB670EE07B6E03F0DC
:1032A0000103002B09D17A6F07F12C03F968009113
:1032B0002020F96FFFF7D4F90DE00CE0D7F880304B
:1032C0005A1EC7F880201B785AB2FB6810469847F0
:1032D000FB6A0133FB62D7F880301B78002BEDD1FD
:1032E0007B6E03F00103002B09D07A6F07F12C03EA
:1032F000F96800912020F96FFFF7B2F955E054E02A
:10330000BB6D632B0DD17B681A1D7A601B68DBB225
:103310005BB27B65FB68786D9847FB6A0133FB62A3
:1033200043E0BB6D732B3AD17B681A1D7A601B6832
:10333000FB66FB6E002B38D0F86E03F055FE03469B
:10334000FB677B6E03F00103002B09D17A6F07F155
:103350002C03F96800912020F96FFFF781F90BE049
:103360000AE0FB6E5A1CFA661B785AB2FB681046DC
:103370009847FB6A0133FB62FB6E1B78002BF0D190
:103380007B6E03F00103002B0FD07A6F07F12C0343
:10339000F96800912020F96FFFF762F905E0FB68FA
:1033A000B86D9847FB6A0133FB62D7F8843001336C
:1033B000C7F88430D7F884301B785BB2BB65BB6D2F
:1033C000002B7FF4D0ABFB6A18468837BD4680BD22
:1033D00080B400AF0B4B0B4AD2F8882042F4700245
:1033E000C3F88820084B4CF22052DA81064B4DF688
:1033F0002812DA81044B4FF4E9721A80BD465DF859
:10340000047B704700ED00E00020054080B500AF70
:103410000448102101F050F8034B01221A7000F00B
:10342000EBF880BD00F00F40A400FF1F80B500AF97
:103430000448402101F040F8034B01221A7000F0CB
:10344000EBF880BD80F00F40A500FF1F80B500AFF6
:1034500002F028FB02F0A2FA02F06CFA00F024F865
:103460000C4B1B78DBB2002B06D00B480B49FFF747
:10347000BBF8084B00221A70094B1B78DBB2002BFB
:1034800007D005480749FFF7AFF8054B00221A702F
:10349000E6E7E5E7A400FF1F1C70000030700000A5
:1034A000A500FF1F3470000080B500AF00F060F889
:1034B00080BD00BF80B483B000AF0346FB71084BF2
:1034C00097F907205209F97901F01F01012000FA4C
:1034D00001F143F822100C37BD465DF8047B7047BC
:1034E00000E100E080B582B000AF0346FB7197F9C0
:1034F00007301846FFF7DEFF0837BD4680BD00BF26
:1035000080B483B000AF786039607B683A685A60F5
:103510000C37BD465DF8047B704700BF80B483B0B4
:1035200000AF786039607B683A68DA600C37BD4676
:103530005DF8047B704700BF80B485B000AFF860D1
:10354000B9601346FB71FB68BA6853F8223023F464
:103550007022FB791B0403F4702342EA0301FB6829
:10356000BA6843F822101437BD465DF8047B7047F3
:1035700080B500AF17481021174A00F065FF1548C5
:103580001121154A00F060FF144804210A22FFF7B8
:10359000D3FF3B20FFF7A6FF114806210A22FFF7C1
:1035A000CBFF3D20FFF79EFF0E4804210E4A00F09E
:1035B0004BFF0E4806210C4A00F046FF0C48002144
:1035C0000C4A00F041FF09480B210A4A00F03CFF79
:1035D00080BD00BF40F00F400400FF1F009004407A
:1035E00000B0044000F00F40A800FF1F80F00F4023
:1035F000C0F00F400800FF1F80B500AF05484FF432
:103600000031FFF78BFF03484FF48031FFF778FF5D
:1036100080BD00BF40F00F4080B500AF05484FF4BB
:103620008031FFF77BFF03484FF40031FFF768FF5D
:1036300080BD00BF40F00F4080B483B000AF786021
:10364000074B074A126822F440217A68920402F478
:1036500040220A431A600C37BD465DF8047B704770
:103660000070044080B485B000AFF860B9607A6043
:103670001149114B03F5805304331B6823F4403286
:10368000FB681B0403F440331A4301F580530433F1
:103690001A60094BBA68520002F00E017A6802F013
:1036A00001020A4303F5835304331A601437BD46FD
:1036B0005DF8047B704700BF0070044080B485B0A3
:1036C00000AF786039607B681B78FB73FB7B03F08D
:1036D0005F03FB733B681A78FB7B1343FB737B68C8
:1036E000FA7B1A703B685B789B01DAB27B689A7050
:1036F0001437BD465DF8047B704700BF80B485B0C9
:1037000000AF78600B46FB707B681B78FB73FB7B1C
:1037100023F00F03FB73FA7BFB781343FB737B6887
:10372000FA7B1A701437BD465DF8047B704700BF02
:1037300080B485B000AF78607A6849F697039A4202
:1037400002D80023FB7308E07A68074B9A4202D83C
:103750000123FB7301E00223FB73FB7B1846143744
:10376000BD465DF8047B704700127A0080B500AF5B
:103770000B4B1B78DBB2DBB25BB2002B0DDA094BD3
:103780001B68002B06D1084840F26911074A084B14
:1037900000F01AFA034B1B6800E00023184680BDB6
:1037A00000500640040AFF1F38700000D076000069
:1037B0005070000080B500AFFFF7D8FF03461846F1
:1037C00080BD00BF80B582B000AF78600D4B7A68D5
:1037D000526803F5825304331A607B681B781946DC
:1037E0007B685B781A467B689B78084611461A46C8
:1037F000FFF738FF7B68DB781846FFF71DFF0837B7
:10380000BD4680BD0070044080B485B000AF034663
:10381000FB71204B1B7BDBB203F00302FB799A4266
:1038200002D00123FB7301E00023FB73194B194AFB
:10383000127BD2B222F00302D1B2FA7902F0030273
:10384000D2B20A43D2B21A73FB79002B0ED1114BBC
:103850005B78DBB203F00403002B07D000BF0D4BF5
:103860009B79DBB203F00203002BF8D0FB7B002B2B
:1038700009D040F2DC53BB6000E000BFBB685A1EB9
:10388000BA60002BF9D1002318461437BD465DF805
:10389000047B70470040064080B485B000AF1346FB
:1038A0000246FA710A46BA717B713B4B9B79DBB2D7
:1038B00003F00C039B08FB60374B9B79DBB203F0F2
:1038C0000103FB72344B1B7ADBB203F00E035B087F
:1038D000BB727A79BB7A9A422CD0FB7A012B19D130
:1038E000FB68012B06D02C4B1B78DBB203F00203E4
:1038F000002B0FD0284B284A5278D2B222F0010276
:10390000D2B25A7000BF244B9B79DBB203F00103A3
:10391000002BF8D1204B204A127AD2B222F02F028B
:10392000D1B27A795200D2B202F00E02D2B20A4378
:10393000D2B21A72184B184A5278D2B222F001024F
:10394000D1B2BA7902F00102D2B20A43D2B25A70AD
:10395000114B114A1278D2B222F00302D1B2FA7995
:103960000A43D2B21A70FB68012B04D0FB7903F032
:103970000203002B08D000BF074B9B79DBB203F09A
:103980000102BB799A42F7D1002318461437BD468D
:103990005DF8047B704700BF0040064080B584B0EE
:1039A00000AF78607B68002B06D11D484FF458713A
:1039B0001C4A1D4B00F008F90023FB737B685B7801
:1039C00003F00703DAB2FB7B1343FB73174BFA7B5D
:1039D0001A71164B154A5279D2B222F01F02D1B297
:1039E0007A68927802F01F02D2B20A43D2B25A71B8
:1039F0000E4B0E4A1279D1B27A6812780A43D2B2CB
:103A000042F04002D2B21A7100BF084B9B79DBB280
:103A100003F04003002BF8D01037BD4680BD00BF37
:103A200038700000EC7600006C700000004006402A
:103A300080B584B000AF78607B681B681846FFF7DC
:103A400077FE0346FB737B681B791A481946FFF71C
:103A500055FE7B68063317481946FFF72FFE164BB5
:103A6000154A5278D2B222F03C02D1B2FA7B12014E
:103A7000D2B202F03002D2B20A43D1B27A6852799D
:103A80000A43D2B25A707B685B79002B0ED0094B87
:103A90001B78DBB2DBB25BB2002B07DA00BF064B50
:103AA0009B79DBB203F00203002BF8D01037BD4640
:103AB00080BD00BF005006400040064080B582B087
:103AC00000AF03463960FB71214B214A5278D2B2D4
:103AD00022F00202D2B25A701D4B1D4A1278D2B2A5
:103AE00002F03B02D2B262F07F02D2B21A7000BF83
:103AF000174B9B79DBB203F01C03082BF8D1144B56
:103B0000134A5279D2B222F04002D2B25A7100BFA7
:103B10000F4B9B79DBB203F02003002BF8D1386800
:103B2000FFF73CFF0A4B0A4A5279D2B242F04002F8
:103B3000D2B25A7100BF064B9B79DBB203F020036F
:103B4000002BF8D0002318460837BD4680BD00BFC3
:103B50000040064080B582B000AF0B463A60024696
:103B6000FA71BB713B68002B06D1134840F27161BA
:103B7000124A134B00F028F8FB791846FFF744FE71
:103B8000BB7918463968FFF799FF0E4B0D4A12783A
:103B9000D2B202F03F02D2B21A7000BF094B9B7939
:103BA000DBB203F00C039B08032BF7D1002318466C
:103BB0000837BD4680BD00BF3870000000770000A8
:103BC0006C7000000040064080B586B002AFF8601F
:103BD000B9607A603B607B68009304483968FA6892
:103BE000BB68FEF701FD00BEFDE700BF747000007A
:103BF00080B483B000AF78607B681B68DB0FDBB2FA
:103C000018460C37BD465DF8047B704780B582B01E
:103C100000AF786039607868FFF7EAFF0346002B51
:103C200005D0074B1B6878683968984704E0054B56
:103C30001B687868396898470837BD4680BD00BF63
:103C4000B800FF1FBC00FF1F80B500AF084B1B680A
:103C5000002B06D1074840F24C61074A074BFFF79B
:103C6000B3FF034B1B6806481946FFF7CFFF80BD23
:103C7000AC00FF1FB4700000147700002471000036
:103C800000C0024080B500AF084B5B68002B06D136
:103C9000074840F25461074A074BFFF795FF034B73
:103CA0005B6806481946FFF7B1FF80BDAC00FF1FF7
:103CB000B47000002C7700003471000000D0024086
:103CC00080B500AF084B9B68002B06D1074840F237
:103CD0005C61074A074BFFF777FF034B9B68064879
:103CE0001946FFF793FF80BDAC00FF1FB4700000C2
:103CF000447700004471000000C00A4080B584B0E1
:103D000000AF786039603B681F2B06D919484FF423
:103D1000E471194A194BFFF757FF0023FB607A68DB
:103D20003B685B01134403F5805318339B889BB2B7
:103D300003F08003DB09FA681343FB607B68DA6AEF
:103D40003B6822FA03F303F001035B00FA681343B4
:103D5000FB607B685A6A3B6822FA03F303F00103B5
:103D60009B00FA681343FB60FB6818461037BD469A
:103D700080BD00BF547100005C77000094710000AA
:103D800090B589B000AF78607B68002B06D14E48B3
:103D90004FF44E714D4A4E4BFFF716FF7B689B6800
:103DA0007A68127CDA777B68DB68002B09D17B6844
:103DB0001C687B685B687868194601220023A0476D
:103DC0007EE07B689A687B681B7C5B01134403F58B
:103DD000805318331B687B617B689A687B681B7C07
:103DE0005B01134403F5805318339B889BB203F0A7
:103DF0008003002B0CBF00230123FB747B68DB686E
:103E00007A69D31A7B617B695B09FB60FB7C002BC1
:103E100002D0FB68FB760EE0FB68002B04D0FB6849
:103E2000DBB2013BDBB205E07B681B7DDBB2DBB2C2
:103E3000013BDBB2FB76FA7E7B685B7CDBB25BB27C
:103E40009A4212D17B68DB7CDAB27B681B7DDBB2E5
:103E500052B25BB29A4205D17B68DB7CDBB25BB2CB
:103E6000FB6113E00023FB6110E0FA7E7B685B7C62
:103E7000DBB25BB2D31AFB61FB69002B06DA7B680D
:103E80001B7DDBB25BB2FA691344FB61FA7E7B688F
:103E90005A747B68DB7CDBB2DAB2FB69DBB2D31A23
:103EA000DBB2DAB27B68DA747B681B68002B07D060
:103EB0007B681C687B685968FB69FA7C7868A04756
:103EC0002437BD4690BD00BF5471000078770000D4
:103ED0005072000080B500AF0E480021FFF70EFFC2
:103EE000034603F00403002B04D00B4B1B68184659
:103EF000FFF746FF07481021FFF700FF034603F0D6
:103F00000403002B04D0044B1B6C1846FFF738FF4A
:103F100080BD00BF00800040C000FF1F80B500AF23
:103F20000E480121FFF7EAFE034603F00403002BCD
:103F300004D00B4B5B681846FFF722FF074811219E
:103F4000FFF7DCFE034603F00403002B04D0044B10
:103F50005B6C1846FFF714FF80BD00BF0080004077
:103F6000C000FF1F80B500AF0E480221FFF7C6FE5C
:103F7000034603F00403002B04D00B4B9B68184648
:103F8000FFF7FEFE07481221FFF7B8FE034603F0D5
:103F90000403002B04D0044B9B6C1846FFF7F0FE83
:103FA00080BD00BF00800040C000FF1F80B500AF93
:103FB0000E480321FFF7A2FE034603F00403002B83
:103FC00004D00B4BDB681846FFF7DAFE07481321D5
:103FD000FFF794FE034603F00403002B04D0044BC8
:103FE000DB6C1846FFF7CCFE80BD00BF00800040B0
:103FF000C000FF1F80B500AF0E480421FFF77EFE12
:10400000034603F00403002B04D00B4B1B69184636
:10401000FFF7B6FE07481421FFF770FE034603F0D2
:104020000403002B04D0044B1B6D1846FFF7A8FEB9
:1040300080BD00BF00800040C000FF1F80B500AF02
:104040000E480521FFF75AFE034603F00403002B38
:1040500004D00B4B5B691846FFF792FE0748152109
:10406000FFF74CFE034603F00403002B04D0044B7F
:104070005B6D1846FFF784FE80BD00BF00800040E6
:10408000C000FF1F80B500AF0E480621FFF736FEC7
:10409000034603F00403002B04D00B4B9B69184626
:1040A000FFF76EFE07481621FFF728FE034603F0D0
:1040B0000403002B04D0044B9B6D1846FFF760FEF1
:1040C00080BD00BF00800040C000FF1F80B500AF72
:1040D0000E480721FFF712FE034603F00403002BEE
:1040E00004D00B4BDB691846FFF74AFE074817213F
:1040F000FFF704FE034603F00403002B04D0044B37
:10410000DB6D1846FFF73CFE80BD00BF008000401D
:10411000C000FF1F80B500AF0E480821FFF7EEFD7D
:10412000034603F00403002B04D00B4B1B6A184614
:10413000FFF726FE07481821FFF7E0FD034603F0CE
:104140000403002B04D0044B1B6E1846FFF718FE27
:1041500080BD00BF00800040C000FF1F80B500AFE1
:104160000E480921FFF7CAFD034603F00403002BA4
:1041700004D00B4B5B6A1846FFF702FE0748192173
:10418000FFF7BCFD034603F00403002B04D0044BEF
:104190005B6E1846FFF7F4FD80BD00BF0080004055
:1041A000C000FF1F80B500AF0E480A21FFF7A6FD33
:1041B000034603F00403002B04D00B4B9B6A184604
:1041C000FFF7DEFD07481A21FFF798FD034603F0CD
:1041D0000403002B04D0044B9B6E1846FFF7D0FD60
:1041E00080BD00BF00800040C000FF1F80B500AF51
:1041F0000E480B21FFF782FD034603F00403002B5A
:1042000004D00B4BDB6A1846FFF7BAFD07481B21A9
:10421000FFF774FD034603F00403002B04D0044BA6
:10422000DB6E1846FFF7ACFD80BD00BF008000408C
:10423000C000FF1F80B500AF0E480C21FFF75EFDE8
:10424000034603F00403002B04D00B4B1B6B1846F2
:10425000FFF796FD07481C21FFF750FD034603F0CA
:104260000403002B04D0044B1B6F1846FFF788FD96
:1042700080BD00BF00800040C000FF1F80B500AFC0
:104280000E480D21FFF73AFD034603F00403002B0F
:1042900004D00B4B5B6B1846FFF772FD07481D21DE
:1042A000FFF72CFD034603F00403002B04D0044B5E
:1042B0005B6F1846FFF764FD80BD00BF00800040C3
:1042C000C000FF1F80B500AF0E480E21FFF716FD9E
:1042D000034603F00403002B04D00B4B9B6B1846E2
:1042E000FFF74EFD07481E21FFF708FD034603F0C8
:1042F0000403002B04D0044B9B6F1846FFF740FDCE
:1043000080BD00BF00800040C000FF1F80B500AF2F
:104310000E480F21FFF7F2FC034603F00403002BC5
:1043200004D00B4BDB6B1846FFF72AFD07481F2113
:10433000FFF7E4FC034603F00403002B04D0044B16
:10434000DB6F1846FFF71CFD80BD00BF00800040FA
:10435000C000FF1F80B582B000AF0023FB7117E0E3
:10436000FA790E4B53F82230002B0ED0FA790C4B11
:1043700053F82230F9790B4A52F82110F879074A9C
:1043800052F82020084611469847FB790133FB710B
:10439000FB79012BE4D90837BD4680BD4001FF1FE2
:1043A0005001FF1F4801FF1F80B500AFFFF7D2FF8C
:1043B00080BD00BF80B485B000AFF860B96013461F
:1043C000FB71FB79002B07D1BB68012202FA03F3D2
:1043D0001A46FB689A6006E0BB68012202FA03F302
:1043E0001A46FB685A601437BD465DF8047B704777
:1043F00080B584B000AF78600023FB600AE00E4B0C
:10440000FA6853F822207B689A4200D105E0FB68E5
:104410000133FB60FB68042BF1D9FB68042B05D941
:1044200006484421064A074BFFF7CEFBFB681846B7
:104430001037BD4680BD00BF9C7700008C73000024
:10444000B0770000A473000080B584B000AFF860BE
:10445000B9607A607B68002B05D114484B21144A5F
:10446000144BFFF7B1FB7B681B78002B0AD1FB686C
:104470005A69BB68012101FA03F3DB431A40FB6868
:104480005A610FE07B685B78F868B9681A46FFF7F5
:1044900091FFFB685A69BB68012101FA03F31A43D3
:1044A000FB685A611037BD4680BD00BF8C730000A9
:1044B000C4770000CC73000080B584B000AF786092
:1044C00039607868FFF794FF0346FB73FA7B054B6E
:1044D00053F82230BB60BB683A68C3F8A02010379D
:1044E000BD4680BD8877000080B582B000AF78609F
:1044F00039607B68DB78DBB203F01003002B06D158
:104500007B689B78DBB203F02003002B05D0074BC0
:104510001B6878683968984704E0054B1B68786821
:10452000396898470837BD4680BD00BF6801FF1F46
:104530006C01FF1F80B500AF034B1B680348194691
:10454000FFF7D2FF80BD00BF5801FF1F006006408B
:1045500080B500AF034B5B6803481946FFF7C4FF03
:1045600080BD00BF5801FF1F0070064080B500AF3E
:10457000034B9B6803481946FFF7B6FF80BD00BF99
:104580005801FF1F00600E4080B500AF034BDB6891
:1045900003481946FFF7A8FF80BD00BF5801FF1F61
:1045A00000700E4080B485B000AF78607B681B0C53
:1045B00003F1804303F58E23FB60FB68FA68116802
:1045C0007A6892B2012000FA02F20A431A601437A4
:1045D000BD465DF8047B704780B584B000AF78605D
:1045E0000023FB600AE00E4BFA6853F822207B6838
:1045F0009A4200D105E0FB680133FB60FB68042BA5
:10460000F1D9FB68042B05D906488621064A074BD9
:10461000FFF7DAFAFB6818461037BD4680BD00BFC9
:10462000D4770000D4730000FC770000EC73000026
:1046300080B58CB000AFF860B9607A60BB68002BC1
:1046400005D13A48C4213A4A3A4BFFF7BDFAFA6815
:10465000394B9A421AD0FA68384B9A4214D0FA6809
:10466000374B9A420ED0FA68364B9A4208D0FA6815
:10467000354B9A4201D1012309E04FF0FF3306E0A8
:10468000012304E0012302E0082300E00823BA68C4
:104690009279934205DA2548C621254A2B4BFFF72C
:1046A00093FAFA68244B9A421AD0FA68234B9A423A
:1046B00014D0FA68224B9A420ED0FA68214B9A42E3
:1046C00008D0FA68204B9A4201D1012309E04FF04B
:1046D000FF3306E0012304E0012302E0082300E0A9
:1046E0000823BA68D279934205DA1048C721104AE4
:1046F000174BFFF769FAF868FFF76EFF0246154B94
:1047000053F822301846FFF74DFFFB689B6823F4EF
:104710004022FB689A60BB681B68BB6100237B6218
:1047200000237B8504233B625BE000BFD473000061
:10473000107800001474000000400C4000500C4041
:1047400000600C4000700C4000600D401C740000C4
:104750005C740000E8770000BB681B683A6A02FBE3
:1047600003F37A68B2FBF3F33B853B8D002B01D159
:1047700001233B853B8D3A6A02FB03F37A68B2FB67
:10478000F3F37B61BB681B687A69D31AFB61BB6872
:104790001A683B8D0133396A01FB03F37968B1FB79
:1047A000F3F3D21AFB699A420ED2BB681A683B8DAA
:1047B0000133396A01FB03F37968B1FBF3F3D31AD0
:1047C000FB613B8D01333B85FA69BB699A4205D891
:1047D000FB69BB613B6A7B623B8D7B853B6A013336
:1047E0003B623B6A202BB7D9BB681A68484BA3FBD6
:1047F00002135A0913465B001A44BB699A4225D931
:10480000FB681B68FB627B6A032B06D97B6A072B5C
:1048100003D8FB6A43F40033FB62FB6A23F0F853CE
:10482000FB627B6A013B1B0603F0F853FA6A1343F1
:10483000FB62FB6A23F4FF5323F01F03FB627B8DB3
:10484000C3F30C02FB6A1A43FB681A60FB681B681F
:1048500023F00052FB681A60FB689B6823F0130387
:10486000FB62BB681B79002B07D0BB681B7943F048
:104870001003DBB2FA6A1343FB62FB68FA6A9A60C0
:10488000FB681B6823F40053FB62BB685B795B0326
:1048900003F40052FB6A1A43FB681A60BB68DB79B9
:1048A0001A04BB689B791A43FB68DA61FB689B6951
:1048B00043F08802FB689A61FB689B6943F44042BD
:1048C000FB689A61134BFB62FB6A43F44043FB6253
:1048D000FB685A68FB6A1A43FB685A60FB689B686E
:1048E000FB62BB681B7A002B03D0FB6A43F40023F6
:1048F000FB62BB685B7A002B03D0FB6A43F4802326
:10490000FB62FB68FA6A9A603037BD4680BD00BF23
:104910001F85EB5100000FC080B582B000AF7860FA
:104920007B68002B06D110484FF4B7710F4A104B2B
:10493000FFF74AF97B684FF4E1321A607B68002286
:104940001A717B6800225A717B6800229A717B6819
:104950000022DA717B6800221A727B6800225A7288
:104960000837BD4680BD00BFD47300001C7800002E
:104970001474000080B485B000AF78607B685B6819
:10498000FB607B689B6903F443031B0CFA681343C9
:10499000FB60FB6818461437BD465DF8047B704722
:1049A00080B584B000AF786039607B689B69BB607C
:1049B000BB6823F00303BB603B6803F00303BA68E2
:1049C0001343BB607B68BA689A617B685B68BB60B5
:1049D000BB6823F0804323F4F813BB603A68144BA0
:1049E0001340BA681343BB60BB6823F48043BB60C9
:1049F0003B6803F48043BA681343BB607B685A6822
:104A0000BB681A437B685A607868FFF7B3FF0246B9
:104A10003B681340002B03D040F21A53FB6001E0C7
:104A20000023FB60FB6818461037BD4680BD00BF01
:104A300000001F4080B485B000AFF860B9607A60B4
:104A40000DE000BFFB685B6803F40003002BF9D0A6
:104A5000BB685A1CBA601B781A46FB68DA607B6830
:104A60005A1E7A60002BECD11437BD465DF8047BEA
:104A7000704700BF80B586B000AFF860B9607A605B
:104A800044E037E0F868FFF775FF78617B6903F46D
:104A90000023002B07D0F8684FF40021FFF780FFB8
:104AA00040F21D5338E07B6903F48023002B07D0CC
:104AB000F8684FF48021FFF773FF40F21E532BE09C
:104AC0007B6903F40033002B07D0F8684FF4003102
:104AD000FFF766FF40F21F531EE07B6903F480334B
:104AE000002B07D0F8684FF48031FFF759FF4FF4DF
:104AF000A46311E0FB68DB691B0E002BC2D0BB680E
:104B00005A1CBA60FA68D268D2B21A707B685A1E10
:104B10007A60002BB5D1002318461837BD4680BDFA
:104B200080B500AF034B1B68034A12680348114667
:104B3000984780BD8401FF1F7001FF1F00400C409B
:104B400080B500AF034B1B68034A52680348114607
:104B5000984780BD8401FF1F7001FF1F00500C406B
:104B600080B500AF034B1B68034A926803481146A7
:104B7000984780BD8401FF1F7001FF1F00600C403B
:104B800080B500AF034B1B68034AD2680348114647
:104B9000984780BD8401FF1F7001FF1F00700C400B
:104BA00080B500AF034B1B68034A126903481146E6
:104BB000984780BD8401FF1F7001FF1F00600D40FA
:104BC00080B483B000AF786039607B681B6823F4E1
:104BD000E0123B681A437B681A600C37BD465DF8EB
:104BE000047B704780B483B000AF786039607B6825
:104BF000D3F8803023F4E0123B681A437B68C3F893
:104C000080200C37BD465DF8047B704780B483B0CC
:104C100000AF786039607B681A683B68DB431340FB
:104C200023F4E0127B681A600C37BD465DF8047B04
:104C3000704700BF80B483B000AF786039607B6894
:104C4000D3F880203B68DB43134023F4E0127B68F9
:104C5000C3F880200C37BD465DF8047B704700BF69
:104C600080B48BB000AFF860B9607A603B6000231D
:104C70007B62002387F823307B68DB08FB76002308
:104C8000FB6100237B6100237B6227E0002387F820
:104C9000233013E03B681B787B6197F82330DB00FF
:104CA0007A6902FA03F3FA691343FB613B68013343
:104CB0003B6097F82330013387F8233097F823209F
:104CC000FB7E9A42E6D3FB68BA680832F96943F87A
:104CD00022100023FB617B6A01337B62FB7E3A6B0F
:104CE000B2FBF3F27B6A9A42D0D82C37BD465DF80E
:104CF000047B704780B489B000AFF860B9607A6017
:104D00003B600023FB610023FB767B68DB08BB76FE
:104D100000237B610023FB611DE0FB68BA68283239
:104D200053F822307B610023FB760DE0FB7EDB0035
:104D30007A6922FA03F3DAB23B681A703B680133EE
:104D40003B60FB7E0133FB76FA7EBB7E9A42EDD35D
:104D5000FB690133FB61BB7EBA6AB2FBF3F2FB690C
:104D60009A42DAD82437BD465DF8047B704700BF0D
:104D700080B483B000AF78600B46FB70FB78002BEB
:104D80001BD07B689B689B0F012B0BD17B68D3F8F2
:104D9000803023F0004323F4E01343F000427B68AB
:104DA000C3F880207B681B6823F0004323F4E013E2
:104DB00043F000427B681A6007E07B681B6823F0C1
:104DC000004323F4E0137A6813600C37BD465DF8A6
:104DD000047B704780B483B000AF78600B46FB70F3
:104DE000FB78002B1CD07B68D3F888309B0F012BFD
:104DF00009D17B681B6823F0004323F4E01343F0E0
:104E000000427B681A607B68D3F8803023F000434F
:104E100023F4E01343F000427B68C3F8802009E0EC
:104E20007B68D3F8803023F0004323F4E0137A68E2
:104E3000C2F880300C37BD465DF8047B704700BF78
:104E400080B582B000AF786039603B68002B06D136
:104E5000124840F24531124A124BFEF7B5FE78680F
:104E60000021FFF785FF78684FF4A061FFF7CEFEC1
:104E70003B6801221A603B6810331846002120224B
:104E800002F065F83B68002283F841203B6800226D
:104E900083F840200837BD4680BD00BFA4740000E1
:104EA00034780000E474000080B582B000AF786010
:104EB00039603B68002B06D1124840F25A31124A41
:104EC000124BFEF781FE78680021FFF783FF7868B8
:104ED0004FF4A061FFF7AEFE3B6801221A603B6809
:104EE000103318460021202202F031F83B680022DE
:104EF00083F841203B68002283F840200837BD46F4
:104F000080BD00BFA47400004C780000E474000071
:104F100090B587B002AF786039603B68002B06D14E
:104F2000684840F26F31684A684BFEF74DFE3B68B7
:104F300093F84130DBB21A463B68023253F8323004
:104F4000FB603B681B7BDB08FB727B681B6803F420
:104F50008023002B11D078684FF48021FFF730FEBA
:104F60003B685B68002B08D03B685C683B689B68CB
:104F70007868396840F26E72A0477B681B6803F45A
:104F80008033002B56D03B6893F84130DBB23A684F
:104F90000233DB0013445A683B6893F84230C3F194
:104FA0000803F97A01FB03F39A420AD23B6893F8AB
:104FB0004130DBB23A680233DB0013445B68DBB29A
:104FC00009E03B6893F84230C3F10803DBB2FA7A98
:104FD00002FB03F3DBB2BB723B685B7B1A463B68A8
:104FE0001B7BB97A0091786811461A46FB68FFF777
:104FF00037FE3B6893F84130DBB218463A6802331B
:10500000DB0013445A68BB7AD21A3968831CDB0070
:105010000B445A603B6893F84130DBB21A4619469C
:105020003B68023153F83110BB7A19443B680232B5
:1050300043F832103B6893F84130DBB23A680233F0
:10504000DB0013445B68002B2AD13B6893F84130A6
:10505000DBB20233DB003A68134418460021082211
:1050600001F075FF3B6893F84130DBB25A1C184BD6
:105070001340002B03DA013B63F003030133DAB280
:105080003B6883F841203B685B68002B08D03B6895
:105090005C683B689B687868396840F27172A04729
:1050A0003B6893F84130DBB21A463B68023253F852
:1050B0003230002B03D178683968FFF7C1FE14370E
:1050C000BD4690BDA474000068780000E474000040
:1050D0000300008090B587B002AF786039603B680C
:1050E000002B06D1674840F2B131674A674BFEF7A3
:1050F0006BFD3B6893F84130DBB21A463B680232E5
:1051000053F83230FB603B681B7BDB08FB727B682B
:10511000D3F8803003F48023002B11D078684FF44B
:105120008021FFF75FFD3B685B68002B08D03B6880
:105130005C683B689B687868396840F26F72A0478A
:105140007B68D3F8803003F48033002B51D03B6868
:1051500093F84130DBB23A680233DB0013445A68FB
:105160003B6893F84230F97A01FB03F39A420AD282
:105170003B6893F84130DBB23A680233DB001344FA
:105180005B68DBB206E03B6893F84230FA7A02FBD8
:1051900003F3DBB2BB723B685B7B1A463B681B7B4D
:1051A000B97A0091786811461A46FB68FFF7A2FDAC
:1051B0003B6893F84130DBB218463A680233DB00B3
:1051C00013445A68BB7AD21A3968831CDB000B443B
:1051D0005A603B6893F84130DBB21A4619463B6887
:1051E000023153F83110BB7A19443B68023243F85C
:1051F00032103B6893F84130DBB23A680233DB008F
:1052000013445B68002B2AD13B6893F84130DBB232
:105210000233DB003A68134418460021082201F0EB
:1052200096FE3B6893F84130DBB25A1C184B134092
:10523000002B03DA013B63F003030133DAB23B686E
:1052400083F841203B685B68002B08D03B685C68B2
:105250003B689B687868396840F27272A0473B6887
:1052600093F84130DBB21A463B68023253F83230D1
:10527000002B03D178683968FFF716FE1437BD4656
:1052800090BD00BFA474000080780000E4740000AA
:105290000300008080B500AF084B1B68002B06D1CF
:1052A00007484FF48061074A074BFEF78DFC034B1C
:1052B0001B6806481946FFF72BFE80BD080AFF1F32
:1052C000A474000098780000EC74000000F0024024
:1052D00080B500AF084B5B68002B06D1074840F251
:1052E0000641074A074BFEF76FFC034B5B68064815
:1052F0001946FFF7EFFE80BD080AFF1FA4740000E7
:10530000B47800000075000000F0024080B483B063
:1053100000AF78607B681B6B18460C37BD465DF8A4
:10532000047B704780B483B000AF786039607B68DD
:105330003A681A630C37BD465DF8047B704700BFBE
:1053400080B582B000AF786039603B68032B06D926
:10535000074840F25B31074A074BFEF735FC7B6894
:105360003A68043253F8223018460837BD4680BDEB
:1053700014750000EC7800002C75000080B483B038
:1053800000AF786039607B683A681A620C37BD46B6
:105390005DF8047B704700BF80B483B000AF7860D5
:1053A0007B681B6A18460C37BD465DF8047B704766
:1053B00080B584B000AF786039603B68002B06D1BF
:1053C0002E4840F281112E4A2E4BFEF7FDFB3B6822
:1053D0005B7A002B4FD078680021FFF7B1FF0246BF
:1053E0003B68DA603B685B7A032B44D17868012123
:1053F000FFF7A6FF02463B681A6178680221FFF7B3
:105400009FFF02463B685A6178680321FFF798FFC7
:1054100002463B689A610423FB60FB68581EFB68E8
:10542000013B3A6802339B0013445B681A023968F7
:10543000831C9B000B445A60FB68012B16D9FB6848
:10544000581EFB68013B3A6802339B0013445A68BC
:10545000FB68023B396802339B000B445B681B0E00
:105460001A433968831C9B000B445A60FB685A1E20
:10547000FA60002BD1D11037BD4680BD38750000D1
:10548000D07800007875000090B589B000AFF86062
:10549000B9607A60BB68002B06D1234840F29F11A7
:1054A000224A234BFEF790FBFB685B6CDBB27B610F
:1054B000BB689B68BA68526802FB03F39B083B61B8
:1054C0007A693B699A4202D33B69BB6110E07A6911
:1054D0003B699A4208D23A697B68D21A7B699A4240
:1054E00002D37B69BB6103E03A697B68D31ABB6175
:1054F0000023FB610EE0BB68DA687B68591C7960A9
:105500009B00D418F868FFF747FF03462360FB6948
:105510000133FB61FA69BB699A42ECD37B68184698
:105520002437BD4690BD00BF3875000004790000E7
:105530008075000080B588B000AFF860B9607A600F
:10554000BB68002B06D124484FF4F671234A244B44
:10555000FEF73AFBFB685B6C03F47F031B0C7B617B
:10556000BB689B68BA68526802FB03F39B083B6107
:105570007A693B699A4202D33B69BB6110E07A6960
:105580003B699A4208D23A697B68D21A7B699A428F
:1055900002D37B69BB6103E03A697B68D31ABB61C4
:1055A0000023FB610EE0BB681A697B68591C7960B7
:1055B0009B0013441B68F8681946FFF7DFFEFB6980
:1055C0000133FB61FA69BB699A42ECD37B681846E8
:1055D0002037BD4680BD00BF387500001879000037
:1055E0008075000080B582B000AF786039603B689C
:1055F00003F0C003002B06D10E484FF428710E4A69
:105600000E4BFEF7E1FA3B6803F04003002B07D096
:105610007B681B69002B0AD07B681B69984706E0F2
:105620007B685B69002B02D07B685B699847083711
:10563000BD4680BD387500002C79000088750000DB
:1056400090B585B000AFF860B9607A607A681D4B9C
:105650001340002B06D11C484FF42D711B4A1C4BE4
:10566000FEF7B2FA7B6803F47023002B11D0BB68FD
:105670001B68002B0DD1BB681B6A002B09D0BB68CF
:105680001C6ABB685B6AF868B96840F2A662A0470A
:1056900015E0BB685B68F8681946FFF789FEBB68D0
:1056A0001B68002B0BD1BB681B6A002B07D0BB68A3
:1056B0001C6ABB685B6AF868B9680022A0471437A7
:1056C000BD4690BD01000F00387500004C79000008
:1056D000B075000090B585B000AFF860B9607A6031
:1056E000BB681B68002B06D1324840F2C721324A02
:1056F000324BFEF769FA7A68314B1340002B06D122
:105700002C484FF432712C4A2E4BFEF75DFABB68E1
:105710001B685B7883F00103DBB2002B12D07A6840
:10572000294B1340002B0DD0BB681B6A002B09D0FE
:10573000BB681C6ABB685B6AF868B96840F2A7621C
:10574000A04734E07B6803F02003002B0CD0BB683B
:105750001A68BB68DB68F86811461A46FFF794FEC2
:105760000246BB68DA6022E07B6803F01003002B7E
:105770000CD0BB681A68BB68DB68F86811461A462B
:10578000FFF7D8FE0246BB68DA6010E07B6803F0E2
:105790000203002B0BD0BB681B6A002B07D0BB6831
:1057A0001C6ABB685B6AF868B9680022A0471437B6
:1057B000BD4690BD3875000068790000D4750000C2
:1057C0003A007011E47500000000701180B582B0DD
:1057D00000AF78607B689B69002B02D07B689B6977
:1057E00098470837BD4680BD80B582B000AF78606D
:1057F0007B68DB69002B02D07B68DB699847083740
:10580000BD4680BD80B584B000AF786039603B682C
:10581000002B06D125484FF49D61254A254BFEF704
:10582000D3F97868FFF772FDF8603B68FA689A6010
:10583000FB6803F0C003002B06D0FB6803F0C00335
:1058400038681946FFF7CEFEFA681B4B1340002B51
:1058500007D0FA68184B1340786839681A46FFF782
:10586000EFFEFA68154B1340002B07D0FA68134B74
:105870001340786839681A46FFF72CFFFB6803F479
:105880008073002B02D03868FFF7A0FFFB6803F09D
:105890000403002B02D03868FFF7A6FF7868F96888
:1058A000FFF740FD1037BD4680BD00BF38750000D2
:1058B000807900008C76000001000F003A00701122
:1058C00080B500AF084B1B68002B06D1074840F29B
:1058D0000A51074A074BFEF777F9034B1B68064846
:1058E0001946FFF78FFF80BD8801FF1F3875000044
:1058F00098790000A076000000100B4080B483B0BF
:1059000000AF78600A490A4B03F5805304331B68E3
:1059100023F040627B689B0603F040631A4301F565
:10592000805304331A600C37BD465DF8047B704722
:105930000070044080B582B000AF0220FFF7DEFFA8
:10594000FDF738FF786005484FF4E13102227B68AB
:10595000FCF702FE0837BD4680BD00BF00600D4069
:1059600080B483B000AF7860034B7A681A600C375C
:10597000BD465DF8047B7047040AFF1F80B400AF8A
:10598000054B03F5825304334FF08A721A60BD460B
:105990005DF8047B704700BF0070044080B500AF25
:1059A000FFF7ECFF0D48FEF743F80D48FFF7D8FF6F
:1059B0000023184600210B4AFEF7CCF802210022F2
:1059C0000023084611461A46FDF766FF0648FDF714
:1059D000F9FE064A064B1A6080BD00BFC47900007C
:1059E000001BB700B8790000BC790000000E270743
:1059F0000000FF1F80B485B000AF78607B681B0C8F
:105A000003F1804303F58E23FB60FB68FA6811689D
:105A10007A6892B2012000FA02F20A431A6014373F
:105A2000BD465DF8047B704780B586B000AFF86076
:105A3000B9607A607B68002B05D10948D221094AF8
:105A4000094BFEF7C1F8BB689B00FA6813447B6101
:105A50007B697A6812881A801837BD4680BD00BFFE
:105A6000B0760000D0790000C876000080B485B020
:105A700000AFF860B9601346FB71FB68BA6853F871
:105A8000223023F4E062FB791B0203F4E06342EA74
:105A90000301FB68BA6843F822101437BD465DF86D
:105AA000047B704780B582B000AF2248FFF7A2FFA9
:105AB0000023BB803B7943F003033B717B790122D8
:105AC00062F302037B713B1D1B4804211A46FFF75A
:105AD000ABFF1A48FFF78EFF194812210022FFF78B
:105AE000C5FF174813210022FFF7C0FF14481021FB
:105AF0000122FFF7BBFF124811210122FFF7B6FF79
:105B00001048FFF777FF10480E210322FFF7AEFF82
:105B10000D480F210322FFF7A9FF3B1D0A4806216C
